:100000000EC04BC05FC026C025C0DEC023C022C0CA
:1000100021C020C01FC01EC057C01CC01BC011245F
:100020001FBECFE5D2E0DEBFCDBF11E0A0E6B0E05D
:10003000E2E1F7E002C005900D92A230B107D9F7D6
:1000400021E0A2E0B1E001C01D92A233B207E1F7C6
:10005000F9D15DC338C0CF93DF93682F880F770B3A
:1000600085E0660F771F8A95E1F76050704040E2A7
:1000700087E091E04AD1C7E0D1E089918C3030F43B
:1000800064E670E03ED084E690E0A1D181E0C73222
:10009000D80799F7DF91CF9108951F921FB61F924D
:1000A00011248F9380910401811107C010920301E4
:1000B000809127018F5F809327018F911F901FBE32
:1000C0001F901895189518958F938FB78F93EF936E
:1000D000FF93E2E0F1E0818184608183FF91EF9101
:1000E0008F918FBF8F91189510922D0110922C0136
:1000F00010922B0110922A011092290110922801CE
:100100005DC11F93CF93DF93C82F162FD72F54D1E4
:10011000C53F69F184F4C33F41F1C43F09F43FC0D6
:1001200080E03AD110922D0110922C013DD1DF9147
:10013000CF911F913DC1C63F91F0CC3088F7EC2F95
:10014000EE0FFF0BE659FF4F808180932D018181D7
:1001500080932C011AD1812F9D2F39D1E1CF82E4D8
:1001600080932D0110922C01F5CF81E2F9CF82E22C
:1001700080932D0110922C0108D1812F9D2F63E0D7
:1001800070E079D2EB01CB0122D18BE280932D017B
:10019000CE011DD183E380932D01CE01DECF83E319
:1001A00080932D0110922C01F0D0812F9D2F63E0C0
:1001B00070E061D2EB01CB010AD18BE280932D017B
:1001C000CE0105D182E2E7CF1F920F920FB60F92B8
:1001D00011242F933F934F935F936F937F938F934C
:1001E0009F93AF93BF93EF93FF9320912D01809145
:1001F0002A0190912B01820F911D90932B018093E6
:100200002A01E0912A01F0912B01349623E0F69522
:10021000E7952A95E1F7EF77FF27EE57FF4F8081AB
:1002200090912C019115D9F090912C0120912801E9
:1002300030912901290F311D309329012093280184
:10024000E0912801F0912901349693E0F695E79525
:100250009A95E1F7EF77FF27EE57FF4F9081890FCF
:1002600096959695891B4FD0D9D0FF91EF91BF916C
:10027000AF919F918F917F916F915F914F913F913E
:100280002F910F900FBE0F901F90189550E856BDFC
:1002900016BC48B321E030E0F90102C0EE0FFF1FA9
:1002A0008A95E2F7CF0101C0220F6A95EAF7822B07
:1002B000482B48BB9BE090BD58B993E095BF90E6B2
:1002C0009BBF85BB089578940895F894089598B3DA
:1002D00021E030E001C0220F8A95EAF7922B98BB0B
:1002E000089592E099BF93E09ABD91E093BF12BE4A
:1002F00019BC97B321E030E001C0220F8A95EAF7DC
:10030000922B97BB089589BD089550E0CFC150E06E
:10031000DDC1A895F89414BE91B5986191BD813066
:1003200041F0823041F0811102C082E481BD7894B5
:10033000089583E4FBCF87E4F9CFA895F89414BE21
:1003400081B5886181BD11BC7894089585B7877E99
:10035000806185BFF89485B7806285BF85B7846862
:1003600085BF8B7F85BF7894889585B78F7D85BF46
:10037000089585B7877E806185BF85B7806285BF18
:10038000889585B78F7D85BF08958AB580688ABDB9
:100390008AB58F7B8ABD08958AB58F778ABD8AB565
:1003A0008F7B8ABDC09808958BB780648BBF0895FA
:1003B0008BB780628BBF08951BBE089510922E01EB
:1003C00010922F0110923001109231010895CF93B5
:1003D000DF93D82FC92FF2DF85B7877E85BF8D2F9A
:1003E0009C2F6FE070E036D1A0E0B0E040912E018C
:1003F00050912F0160913001709131018417950760
:10040000A607B70718F4DF91CF91089525B72062AA
:1004100025BF889525B72F7D25BFE8CF80912E0178
:1004200090912F01A0913001B09131010196A11D51
:10043000B11D80932E0190932F01A0933001B093B2
:100440003101089562E081E021DF3DDF81E03FDF9F
:1004500082E03DDF81E05DDF79DF6FDF80E041DF5B
:1004600043DE1092020181E08093040110920301A7
:10047000109206011092050140E250E06FEF70E02B
:1004800087E091E00CD111E0CFEFD3E086B3982F55
:1004900092708695817080930401811709F4BBC026
:1004A000911123C080910301816080930301109218
:1004B000270180E02EDF4ADF1091040180910301C3
:1004C00080FFB3C082E025DF41DF8091030182FF1E
:1004D000DDCF91E0909302018A7F826080930301D7
:1004E00068EC70E083EF0DDED1CF109203018091B4
:1004F00027019FEF980F9A3018F0C0932701D9CFAA
:100500008A3011F41092270181E003DF1FDF15DF2D
:1005100080910201823009F458C0E0F4811137C0A3
:1005200064E670E080912701ECDD80910601803265
:1005300018F6E82FF0E0EE5FFE4F909127019583CB
:100540008F5F8093060140E260EE70E087E091E00B
:10055000DEDEB2CF833009F0AFCF8091060180326A
:1005600008F44BC01092020160E273E084EFC9DD31
:1005700060910501683008F09FCF70E085E0660F5C
:10058000771F8A95E1F76050704040E2DFCFE0913D
:10059000270164E670E08AE0E13029F0E23039F4C6
:1005A00064E670E08BE0ADDD1092020185CF87E05C
:1005B000E33049F00E2E000CFF0BE05AFF4F808114
:1005C000883008F079CF47DD77CFE09127010E2EF4
:1005D000000CFF0BE05AFF4F808187FDE5CF809331
:1005E00005011092060140E250E06FEF70E087E0F5
:1005F00091E055D0D09302015FCFE82FF0E0EE5F9D
:10060000FE4F9091270195838F5F8093060164E6EA
:1006100070E083EFACCF911509F44ECF1092020138
:1006200010920301C093270147CF81FF11C082E0E0
:1006300070DE8CDE8091030182FF28CF92E09093E0
:100640000201897F8093030168EC70E085EF4BCF56
:1006500090DE1CCF0024552704C0080E591F880FB8
:10066000991F009729F076956795B8F37105B9F74A
:10067000802D952F0895AA1BBB1B51E107C0AA1F0F
:10068000BB1FA617B70710F0A61BB70B881F991F33
:100690005A95A9F780959095BC01CD010895DC018C
:1006A00001C06D9341505040E0F70895DC01CB014B
:1006B000FC01E199FECF06C0FFBBEEBBE09A31968C
:1006C0000DB20D9241505040B8F70895DC01A40FCF
:1006D000B51F4150504040F0CB01840F951F2E9123
:1006E00005D041505040D8F70895262FE199FECF0C
:1006F0009FBB8EBBE09A01970DB2021639F01CBA6F
:100700002DBB0FB6F894E29AE19A0FBE0895F894C3
:02071000FFCF19
:1007120000FFFFFF010203040506573D4F2E572E2F
:10072200602E4F32573260324F38573860384F3D63
:10073200603D404346494C4F5255585B5E6063668C
:10074200686A6D6F7173757678797B7C7D7E7E7F4A
:100752007F7F7F7F7F7F7E7E7D7C7B7978767573DE
:10076200716F6D6A686663605E5B5855524F4C49A3
:100772004643403C393633302D2A2724211F1C1989
:10078200171512100E0C0A090706040302010100D4
:1007920000000000000001010203040607090A0C20
:1007A2000E10121517191C1F2124272A2D3033363B
:0207B200393CD0
:00000001FF
